{
  "address": "0xC73C12EE968Dee962b4d394A88B94461650D5255",
  "abi": [
    {
      "inputs": [
        {
          "internalType": "contract IERC20",
          "name": "_baseAssetAddress",
          "type": "address"
        },
        {
          "internalType": "contract RewardToken",
          "name": "_JdaiAddress",
          "type": "address"
        }
      ],
      "stateMutability": "nonpayable",
      "type": "constructor"
    },
    {
      "anonymous": false,
      "inputs": [
        {
          "indexed": true,
          "internalType": "address",
          "name": "borrower",
          "type": "address"
        },
        {
          "indexed": false,
          "internalType": "uint256",
          "name": "amount",
          "type": "uint256"
        }
      ],
      "name": "Borrow",
      "type": "event"
    },
    {
      "anonymous": false,
      "inputs": [
        {
          "indexed": true,
          "internalType": "address",
          "name": "lender",
          "type": "address"
        },
        {
          "indexed": false,
          "internalType": "uint256",
          "name": "amount",
          "type": "uint256"
        }
      ],
      "name": "ClaimYield",
      "type": "event"
    },
    {
      "anonymous": false,
      "inputs": [
        {
          "indexed": true,
          "internalType": "address",
          "name": "borrower",
          "type": "address"
        },
        {
          "indexed": false,
          "internalType": "uint256",
          "name": "amount",
          "type": "uint256"
        }
      ],
      "name": "Collateralize",
      "type": "event"
    },
    {
      "anonymous": false,
      "inputs": [
        {
          "indexed": true,
          "internalType": "address",
          "name": "lender",
          "type": "address"
        },
        {
          "indexed": false,
          "internalType": "uint256",
          "name": "amount",
          "type": "uint256"
        }
      ],
      "name": "Lend",
      "type": "event"
    },
    {
      "anonymous": false,
      "inputs": [
        {
          "indexed": false,
          "internalType": "address",
          "name": "liquidator",
          "type": "address"
        },
        {
          "indexed": false,
          "internalType": "uint256",
          "name": "reward",
          "type": "uint256"
        },
        {
          "indexed": true,
          "internalType": "address",
          "name": "borrower",
          "type": "address"
        }
      ],
      "name": "Liquidate",
      "type": "event"
    },
    {
      "anonymous": false,
      "inputs": [
        {
          "indexed": true,
          "internalType": "address",
          "name": "previousOwner",
          "type": "address"
        },
        {
          "indexed": true,
          "internalType": "address",
          "name": "newOwner",
          "type": "address"
        }
      ],
      "name": "OwnershipTransferred",
      "type": "event"
    },
    {
      "anonymous": false,
      "inputs": [
        {
          "indexed": true,
          "internalType": "address",
          "name": "borrower",
          "type": "address"
        },
        {
          "indexed": false,
          "internalType": "uint256",
          "name": "amount",
          "type": "uint256"
        }
      ],
      "name": "Repay",
      "type": "event"
    },
    {
      "anonymous": false,
      "inputs": [
        {
          "indexed": true,
          "internalType": "bytes32",
          "name": "role",
          "type": "bytes32"
        },
        {
          "indexed": true,
          "internalType": "bytes32",
          "name": "previousAdminRole",
          "type": "bytes32"
        },
        {
          "indexed": true,
          "internalType": "bytes32",
          "name": "newAdminRole",
          "type": "bytes32"
        }
      ],
      "name": "RoleAdminChanged",
      "type": "event"
    },
    {
      "anonymous": false,
      "inputs": [
        {
          "indexed": true,
          "internalType": "bytes32",
          "name": "role",
          "type": "bytes32"
        },
        {
          "indexed": true,
          "internalType": "address",
          "name": "account",
          "type": "address"
        },
        {
          "indexed": true,
          "internalType": "address",
          "name": "sender",
          "type": "address"
        }
      ],
      "name": "RoleGranted",
      "type": "event"
    },
    {
      "anonymous": false,
      "inputs": [
        {
          "indexed": true,
          "internalType": "bytes32",
          "name": "role",
          "type": "bytes32"
        },
        {
          "indexed": true,
          "internalType": "address",
          "name": "account",
          "type": "address"
        },
        {
          "indexed": true,
          "internalType": "address",
          "name": "sender",
          "type": "address"
        }
      ],
      "name": "RoleRevoked",
      "type": "event"
    },
    {
      "anonymous": false,
      "inputs": [
        {
          "indexed": true,
          "internalType": "address",
          "name": "borrower",
          "type": "address"
        },
        {
          "indexed": false,
          "internalType": "uint256",
          "name": "amount",
          "type": "uint256"
        }
      ],
      "name": "WithdrawCollateral",
      "type": "event"
    },
    {
      "anonymous": false,
      "inputs": [
        {
          "indexed": true,
          "internalType": "address",
          "name": "lender",
          "type": "address"
        },
        {
          "indexed": false,
          "internalType": "uint256",
          "name": "amount",
          "type": "uint256"
        }
      ],
      "name": "WithdrawLend",
      "type": "event"
    },
    {
      "inputs": [],
      "name": "DEFAULT_ADMIN_ROLE",
      "outputs": [
        {
          "internalType": "bytes32",
          "name": "",
          "type": "bytes32"
        }
      ],
      "stateMutability": "view",
      "type": "function"
    },
    {
      "inputs": [
        {
          "internalType": "address",
          "name": "",
          "type": "address"
        }
      ],
      "name": "JdaiBalance",
      "outputs": [
        {
          "internalType": "uint256",
          "name": "",
          "type": "uint256"
        }
      ],
      "stateMutability": "view",
      "type": "function"
    },
    {
      "inputs": [],
      "name": "JdaiToken",
      "outputs": [
        {
          "internalType": "contract RewardToken",
          "name": "",
          "type": "address"
        }
      ],
      "stateMutability": "view",
      "type": "function"
    },
    {
      "inputs": [],
      "name": "STAFF_ROLE",
      "outputs": [
        {
          "internalType": "bytes32",
          "name": "",
          "type": "bytes32"
        }
      ],
      "stateMutability": "view",
      "type": "function"
    },
    {
      "inputs": [],
      "name": "baseAsset",
      "outputs": [
        {
          "internalType": "contract IERC20",
          "name": "",
          "type": "address"
        }
      ],
      "stateMutability": "view",
      "type": "function"
    },
    {
      "inputs": [],
      "name": "baseAssetAddress",
      "outputs": [
        {
          "internalType": "address",
          "name": "",
          "type": "address"
        }
      ],
      "stateMutability": "view",
      "type": "function"
    },
    {
      "inputs": [
        {
          "internalType": "uint256",
          "name": "_amount",
          "type": "uint256"
        }
      ],
      "name": "borrow",
      "outputs": [],
      "stateMutability": "nonpayable",
      "type": "function"
    },
    {
      "inputs": [
        {
          "internalType": "address",
          "name": "",
          "type": "address"
        }
      ],
      "name": "borrowBalance",
      "outputs": [
        {
          "internalType": "uint256",
          "name": "",
          "type": "uint256"
        }
      ],
      "stateMutability": "view",
      "type": "function"
    },
    {
      "inputs": [
        {
          "internalType": "address",
          "name": "_borrower",
          "type": "address"
        }
      ],
      "name": "calculateBorrowLimit",
      "outputs": [
        {
          "internalType": "uint256",
          "name": "limit",
          "type": "uint256"
        }
      ],
      "stateMutability": "view",
      "type": "function"
    },
    {
      "inputs": [
        {
          "internalType": "address",
          "name": "_borrower",
          "type": "address"
        }
      ],
      "name": "calculateLiquidationPoint",
      "outputs": [
        {
          "internalType": "uint256",
          "name": "point",
          "type": "uint256"
        }
      ],
      "stateMutability": "view",
      "type": "function"
    },
    {
      "inputs": [
        {
          "internalType": "address",
          "name": "_lender",
          "type": "address"
        }
      ],
      "name": "calculateYieldTime",
      "outputs": [
        {
          "internalType": "uint256",
          "name": "lendingTime",
          "type": "uint256"
        }
      ],
      "stateMutability": "view",
      "type": "function"
    },
    {
      "inputs": [
        {
          "internalType": "address",
          "name": "_lender",
          "type": "address"
        }
      ],
      "name": "calculateYieldTotal",
      "outputs": [
        {
          "internalType": "uint256",
          "name": "yield",
          "type": "uint256"
        }
      ],
      "stateMutability": "view",
      "type": "function"
    },
    {
      "inputs": [],
      "name": "claimYield",
      "outputs": [],
      "stateMutability": "nonpayable",
      "type": "function"
    },
    {
      "inputs": [
        {
          "internalType": "address",
          "name": "",
          "type": "address"
        }
      ],
      "name": "collateralBalance",
      "outputs": [
        {
          "internalType": "uint256",
          "name": "",
          "type": "uint256"
        }
      ],
      "stateMutability": "view",
      "type": "function"
    },
    {
      "inputs": [],
      "name": "collateralize",
      "outputs": [],
      "stateMutability": "payable",
      "type": "function"
    },
    {
      "inputs": [],
      "name": "ethPrice",
      "outputs": [
        {
          "internalType": "uint256",
          "name": "",
          "type": "uint256"
        }
      ],
      "stateMutability": "view",
      "type": "function"
    },
    {
      "inputs": [
        {
          "internalType": "address",
          "name": "_borrower",
          "type": "address"
        }
      ],
      "name": "getBorrowBalance",
      "outputs": [
        {
          "internalType": "uint256",
          "name": "",
          "type": "uint256"
        }
      ],
      "stateMutability": "view",
      "type": "function"
    },
    {
      "inputs": [
        {
          "internalType": "address",
          "name": "_borrower",
          "type": "address"
        }
      ],
      "name": "getBorrowLimit",
      "outputs": [
        {
          "internalType": "uint256",
          "name": "",
          "type": "uint256"
        }
      ],
      "stateMutability": "view",
      "type": "function"
    },
    {
      "inputs": [
        {
          "internalType": "address",
          "name": "_borrower",
          "type": "address"
        }
      ],
      "name": "getBorrowingStatus",
      "outputs": [
        {
          "internalType": "bool",
          "name": "",
          "type": "bool"
        }
      ],
      "stateMutability": "view",
      "type": "function"
    },
    {
      "inputs": [
        {
          "internalType": "address",
          "name": "_borrower",
          "type": "address"
        }
      ],
      "name": "getCollateralBalance",
      "outputs": [
        {
          "internalType": "uint256",
          "name": "",
          "type": "uint256"
        }
      ],
      "stateMutability": "view",
      "type": "function"
    },
    {
      "inputs": [
        {
          "internalType": "address",
          "name": "_lender",
          "type": "address"
        }
      ],
      "name": "getEarnedJdaiTokens",
      "outputs": [
        {
          "internalType": "uint256",
          "name": "",
          "type": "uint256"
        }
      ],
      "stateMutability": "view",
      "type": "function"
    },
    {
      "inputs": [],
      "name": "getEthPrice",
      "outputs": [
        {
          "internalType": "uint256",
          "name": "_ethPrice",
          "type": "uint256"
        }
      ],
      "stateMutability": "view",
      "type": "function"
    },
    {
      "inputs": [
        {
          "internalType": "address",
          "name": "_lender",
          "type": "address"
        }
      ],
      "name": "getLendingBalance",
      "outputs": [
        {
          "internalType": "uint256",
          "name": "",
          "type": "uint256"
        }
      ],
      "stateMutability": "view",
      "type": "function"
    },
    {
      "inputs": [
        {
          "internalType": "address",
          "name": "_lender",
          "type": "address"
        }
      ],
      "name": "getLendingStatus",
      "outputs": [
        {
          "internalType": "bool",
          "name": "",
          "type": "bool"
        }
      ],
      "stateMutability": "view",
      "type": "function"
    },
    {
      "inputs": [
        {
          "internalType": "address",
          "name": "_borrower",
          "type": "address"
        }
      ],
      "name": "getLiquidationPoint",
      "outputs": [
        {
          "internalType": "uint256",
          "name": "",
          "type": "uint256"
        }
      ],
      "stateMutability": "view",
      "type": "function"
    },
    {
      "inputs": [
        {
          "internalType": "bytes32",
          "name": "role",
          "type": "bytes32"
        }
      ],
      "name": "getRoleAdmin",
      "outputs": [
        {
          "internalType": "bytes32",
          "name": "",
          "type": "bytes32"
        }
      ],
      "stateMutability": "view",
      "type": "function"
    },
    {
      "inputs": [
        {
          "internalType": "bytes32",
          "name": "role",
          "type": "bytes32"
        },
        {
          "internalType": "address",
          "name": "account",
          "type": "address"
        }
      ],
      "name": "grantRole",
      "outputs": [],
      "stateMutability": "nonpayable",
      "type": "function"
    },
    {
      "inputs": [
        {
          "internalType": "address",
          "name": "staff",
          "type": "address"
        }
      ],
      "name": "grantStaff",
      "outputs": [],
      "stateMutability": "nonpayable",
      "type": "function"
    },
    {
      "inputs": [
        {
          "internalType": "bytes32",
          "name": "role",
          "type": "bytes32"
        },
        {
          "internalType": "address",
          "name": "account",
          "type": "address"
        }
      ],
      "name": "hasRole",
      "outputs": [
        {
          "internalType": "bool",
          "name": "",
          "type": "bool"
        }
      ],
      "stateMutability": "view",
      "type": "function"
    },
    {
      "inputs": [
        {
          "internalType": "address",
          "name": "",
          "type": "address"
        }
      ],
      "name": "isBorrowing",
      "outputs": [
        {
          "internalType": "bool",
          "name": "",
          "type": "bool"
        }
      ],
      "stateMutability": "view",
      "type": "function"
    },
    {
      "inputs": [
        {
          "internalType": "address",
          "name": "",
          "type": "address"
        }
      ],
      "name": "isLending",
      "outputs": [
        {
          "internalType": "bool",
          "name": "",
          "type": "bool"
        }
      ],
      "stateMutability": "view",
      "type": "function"
    },
    {
      "inputs": [
        {
          "internalType": "uint256",
          "name": "_amount",
          "type": "uint256"
        }
      ],
      "name": "lend",
      "outputs": [],
      "stateMutability": "nonpayable",
      "type": "function"
    },
    {
      "inputs": [
        {
          "internalType": "address",
          "name": "",
          "type": "address"
        }
      ],
      "name": "lendingBalance",
      "outputs": [
        {
          "internalType": "uint256",
          "name": "",
          "type": "uint256"
        }
      ],
      "stateMutability": "view",
      "type": "function"
    },
    {
      "inputs": [
        {
          "internalType": "address",
          "name": "_borrower",
          "type": "address"
        }
      ],
      "name": "liquidate",
      "outputs": [],
      "stateMutability": "nonpayable",
      "type": "function"
    },
    {
      "inputs": [],
      "name": "owner",
      "outputs": [
        {
          "internalType": "address",
          "name": "",
          "type": "address"
        }
      ],
      "stateMutability": "view",
      "type": "function"
    },
    {
      "inputs": [],
      "name": "renounceOwnership",
      "outputs": [],
      "stateMutability": "nonpayable",
      "type": "function"
    },
    {
      "inputs": [
        {
          "internalType": "bytes32",
          "name": "role",
          "type": "bytes32"
        },
        {
          "internalType": "address",
          "name": "account",
          "type": "address"
        }
      ],
      "name": "renounceRole",
      "outputs": [],
      "stateMutability": "nonpayable",
      "type": "function"
    },
    {
      "inputs": [
        {
          "internalType": "uint256",
          "name": "_amount",
          "type": "uint256"
        }
      ],
      "name": "repay",
      "outputs": [],
      "stateMutability": "nonpayable",
      "type": "function"
    },
    {
      "inputs": [
        {
          "internalType": "bytes32",
          "name": "role",
          "type": "bytes32"
        },
        {
          "internalType": "address",
          "name": "account",
          "type": "address"
        }
      ],
      "name": "revokeRole",
      "outputs": [],
      "stateMutability": "nonpayable",
      "type": "function"
    },
    {
      "inputs": [
        {
          "internalType": "address",
          "name": "staff",
          "type": "address"
        }
      ],
      "name": "revokeStaff",
      "outputs": [],
      "stateMutability": "nonpayable",
      "type": "function"
    },
    {
      "inputs": [
        {
          "internalType": "uint256",
          "name": "_ethPrice",
          "type": "uint256"
        }
      ],
      "name": "setEthPrice",
      "outputs": [],
      "stateMutability": "nonpayable",
      "type": "function"
    },
    {
      "inputs": [
        {
          "internalType": "address",
          "name": "",
          "type": "address"
        }
      ],
      "name": "startTime",
      "outputs": [
        {
          "internalType": "uint256",
          "name": "",
          "type": "uint256"
        }
      ],
      "stateMutability": "view",
      "type": "function"
    },
    {
      "inputs": [
        {
          "internalType": "bytes4",
          "name": "interfaceId",
          "type": "bytes4"
        }
      ],
      "name": "supportsInterface",
      "outputs": [
        {
          "internalType": "bool",
          "name": "",
          "type": "bool"
        }
      ],
      "stateMutability": "view",
      "type": "function"
    },
    {
      "inputs": [
        {
          "internalType": "address",
          "name": "newOwner",
          "type": "address"
        }
      ],
      "name": "transferOwnership",
      "outputs": [],
      "stateMutability": "nonpayable",
      "type": "function"
    },
    {
      "inputs": [
        {
          "internalType": "uint256",
          "name": "_amount",
          "type": "uint256"
        }
      ],
      "name": "withdrawCollateral",
      "outputs": [],
      "stateMutability": "nonpayable",
      "type": "function"
    },
    {
      "inputs": [
        {
          "internalType": "uint256",
          "name": "_amount",
          "type": "uint256"
        }
      ],
      "name": "withdrawLend",
      "outputs": [],
      "stateMutability": "nonpayable",
      "type": "function"
    }
  ],
  "transactionHash": "0xc53a3bde88144b73af800689ca717b5266af0a2f8a03445d26b484401e34eef0",
  "args": [
    "0xebC1aEf281ec1B8e31d44BdE16F80b64Fd7f7508",
    "0xd98c7a4Ab9aeC9f58F9e12aCe7b3FF0fAfa1Aa9f"
  ],
  "numDeployments": 1,
  "solcInputHash": "34f45318469e8bbfee80cb14598b7884",
  "bytecode": "0x60c06040523480156200001157600080fd5b50604051620026d6380380620026d68339810160408190526200003491620001ba565b6200003f33620000b9565b6001600160a01b03808316608052811660a052600980546001600160a01b03191673d4a33860578de61dbabdc8bfdb98fd742fa7028e1790556200008560003362000109565b620000b17f5620a1113a72b02a617976b3f6b15600dd7a8b3a916a9ca01e23119d989a05433362000109565b5050620001f9565b600080546001600160a01b038381166001600160a01b0319831681178455604051919092169283917f8be0079c531659141344cd1fd0a4f28419497f9722a3daafe3b4186f6b6457e09190a35050565b62000115828262000119565b5050565b60008281526001602090815260408083206001600160a01b038516845290915290205460ff16620001155760008281526001602081815260408084206001600160a01b0386168086529252808420805460ff19169093179092559051339285917f2f8788117e7eff1d82e926ec794901d17c78024a50270940304540a733656f0d9190a45050565b6001600160a01b0381168114620001b757600080fd5b50565b60008060408385031215620001ce57600080fd5b8251620001db81620001a1565b6020840151909250620001ee81620001a1565b809150509250929050565b60805160a0516124866200025060003960008181610780015261138101526000818161084d01528181610bb501528181611008015281816111ca015281816116ea0152818161186f0152611b3201526124866000f3fe60806040526004361061027c5760003560e01c80637d6af0791161014f578063bac4bfdd116100c1578063dff073661161007a578063dff073661461088f578063e8b214f4146108c8578063eec58766146108e8578063eef9a8d514610908578063f2fde38b14610910578063ff186b2e1461093057600080fd5b8063bac4bfdd146107a2578063bf8a0d7c146107db578063c0e305b8146107fb578063c5ebeaec1461081b578063cdf456e11461083b578063d547741f1461086f57600080fd5b806391d148541161011357806391d14854146106cc578063980d6116146106ec578063a1bf28401461070c578063a217fddf14610739578063a6aa57ce1461074e578063a9265a8b1461076e57600080fd5b80637d6af079146105f95780637f10883b1461062f57806385290fa11461065c5780638833efd61461067e5780638da5cb5b146106ae57600080fd5b8063371fd8e6116101f357806367c9b017116101ac57806367c9b017146105355780636e1dc66e1461054a5780636f904d8414610577578063701d3cd8146105a4578063715018a6146105c45780637c17d237146105d957600080fd5b8063371fd8e61461044d5780633c47504e1461046d578063406cf229146104a35780634d73e9ba146104b857806350711be9146104e55780636112fe2e1461051557600080fd5b80632703ee85116102455780632703ee85146103575780632acf68ed1461038d5780632f2ff15d146103ad5780632f865568146103cd5780632ff6302c146103ed57806336568abe1461042d57600080fd5b80629f92621461028157806301ffc9a7146102a357806306872661146102d857806307e024c214610306578063248a9ca314610326575b600080fd5b34801561028d57600080fd5b506102a161029c366004612125565b610946565b005b3480156102af57600080fd5b506102c36102be36600461213e565b610988565b60405190151581526020015b60405180910390f35b3480156102e457600080fd5b506102f86102f3366004612184565b6109bf565b6040519081526020016102cf565b34801561031257600080fd5b506102f8610321366004612184565b610a32565b34801561033257600080fd5b506102f8610341366004612125565b6000908152600160208190526040909120015490565b34801561036357600080fd5b506102f8610372366004612184565b6001600160a01b031660009081526006602052604090205490565b34801561039957600080fd5b506102a16103a8366004612125565b610a99565b3480156103b957600080fd5b506102a16103c836600461219f565b610cdf565b3480156103d957600080fd5b506102a16103e8366004612184565b610d0a565b3480156103f957600080fd5b5061041573d4a33860578de61dbabdc8bfdb98fd742fa7028e81565b6040516001600160a01b0390911681526020016102cf565b34801561043957600080fd5b506102a161044836600461219f565b610f14565b34801561045957600080fd5b506102a1610468366004612125565b610f92565b34801561047957600080fd5b506102f8610488366004612184565b6001600160a01b031660009081526002602052604090205490565b3480156104af57600080fd5b506102a16112a3565b3480156104c457600080fd5b506102f86104d3366004612184565b60076020526000908152604090205481565b3480156104f157600080fd5b506102c3610500366004612184565b60086020526000908152604090205460ff1681565b34801561052157600080fd5b506102a1610530366004612125565b61140f565b34801561054157600080fd5b506102f86115b2565b34801561055657600080fd5b506102f8610565366004612184565b60046020526000908152604090205481565b34801561058357600080fd5b506102f8610592366004612184565b60036020526000908152604090205481565b3480156105b057600080fd5b506102f86105bf366004612184565b6115cb565b3480156105d057600080fd5b506102a161161e565b3480156105e557600080fd5b506102f86105f4366004612184565b611632565b34801561060557600080fd5b506102f8610614366004612184565b6001600160a01b031660009081526007602052604090205490565b34801561063b57600080fd5b506102f861064a366004612184565b60026020526000908152604090205481565b34801561066857600080fd5b506102f860008051602061243183398151915281565b34801561068a57600080fd5b506102c3610699366004612184565b60056020526000908152604090205460ff1681565b3480156106ba57600080fd5b506000546001600160a01b0316610415565b3480156106d857600080fd5b506102c36106e736600461219f565b61163d565b3480156106f857600080fd5b506102f8610707366004612184565b611668565b34801561071857600080fd5b506102f8610727366004612184565b60066020526000908152604090205481565b34801561074557600080fd5b506102f8600081565b34801561075a57600080fd5b506102a1610769366004612125565b61168b565b34801561077a57600080fd5b506104157f000000000000000000000000000000000000000000000000000000000000000081565b3480156107ae57600080fd5b506102c36107bd366004612184565b6001600160a01b031660009081526005602052604090205460ff1690565b3480156107e757600080fd5b506102a16107f6366004612184565b611941565b34801561080757600080fd5b506102f8610816366004612184565b611983565b34801561082757600080fd5b506102a1610836366004612125565b6119b1565b34801561084757600080fd5b506104157f000000000000000000000000000000000000000000000000000000000000000081565b34801561087b57600080fd5b506102a161088a36600461219f565b611c04565b34801561089b57600080fd5b506102c36108aa366004612184565b6001600160a01b031660009081526008602052604090205460ff1690565b3480156108d457600080fd5b506102a16108e3366004612184565b611c2a565b3480156108f457600080fd5b506102f8610903366004612184565b611c69565b6102a1611c74565b34801561091c57600080fd5b506102a161092b366004612184565b611d29565b34801561093c57600080fd5b506102f8600a5481565b61095e6000805160206124318339815191523361163d565b6109835760405162461bcd60e51b815260040161097a906121cb565b60405180910390fd5b600a55565b60006001600160e01b03198216637965db0b60e01b14806109b957506301ffc9a760e01b6001600160e01b03198316145b92915050565b6000806109cb83611668565b6109dd90670de0b6b3a7640000612210565b905060006109ef6301e133808361222f565b6001600160a01b038516600090815260026020526040902054909150670de0b6b3a764000090610a20908390612210565b610a2a919061222f565b949350505050565b600080610a3d6115b2565b6001600160a01b03841660009081526007602090815260408083205460069092529091205491925090606490610a739084612210565b610a7d919061222f565b610a88906046612210565b610a929190612251565b9392505050565b3360009081526005602052604090205460ff16610af85760405162461bcd60e51b815260206004820152601e60248201527f43616e2774207769746864726177206265666f7265206c656e64696e67210000604482015260640161097a565b33600090815260026020526040902054811115610b575760405162461bcd60e51b815260206004820152601d60248201527f496e73756666696369656e74206c656e64696e672062616c616e636521000000604482015260640161097a565b6000610b62336109bf565b336000908152600460209081526040808320429055600290915281208054919492935082918590610b94908490612251565b909155505060405163a9059cbb60e01b8152336004820152602481018290527f00000000000000000000000000000000000000000000000000000000000000006001600160a01b03169063a9059cbb90604401602060405180830381600087803b158015610c0157600080fd5b505af1158015610c15573d6000803e3d6000fd5b505050506040513d601f19601f82011682018060405250810190610c399190612268565b610c555760405162461bcd60e51b815260040161097a9061228a565b3360009081526003602052604081208054849290610c749084906122b7565b909155505033600090815260026020526040902054610ca557336000908152600560205260409020805460ff191690555b60405181815233907f37c871a3744d1af64d9fe61ae5b831e0111ce393b043bed60d48c9b0eb46f66f9060200160405180910390a2505050565b60008281526001602081905260409091200154610cfb81611d9f565b610d058383611da9565b505050565b806000610d156115b2565b9050610d20826115cb565b6001600160a01b038316600090815260066020526040902054610d439083612210565b1115610d915760405162461bcd60e51b815260206004820152601d60248201527f506f736974696f6e2063616e2774206265206c69717569646174656421000000604482015260640161097a565b6001600160a01b03831660009081526008602052604090205460ff16610df95760405162461bcd60e51b815260206004820152601e60248201527f546869732061646472657373206973206e6f7420626f72726f77696e67210000604482015260640161097a565b6001600160a01b038316600090815260066020526040812054610e1f906127109061222f565b610e2a90607d612210565b6001600160a01b0385166000908152600660209081526040808320839055600782528083208390556008909152808220805460ff191690555191925090339083908381818185875af1925050503d8060008114610ea3576040519150601f19603f3d011682016040523d82523d6000602084013e610ea8565b606091505b5050905080610ec95760405162461bcd60e51b815260040161097a906122cf565b60408051338152602081018490526001600160a01b038716917ff37dd205039ad593b44adbb2fcac464abff84760f5919c62baca63a5c49cc739910160405180910390a25050505050565b6001600160a01b0381163314610f845760405162461bcd60e51b815260206004820152602f60248201527f416363657373436f6e74726f6c3a2063616e206f6e6c792072656e6f756e636560448201526e103937b632b9903337b91039b2b63360891b606482015260840161097a565b610f8e8282611e14565b5050565b3360009081526008602052604090205460ff16610ff15760405162461bcd60e51b815260206004820152601d60248201527f43616e2774207265706179206265666f726520626f72726f77696e6721000000604482015260640161097a565b6040516370a0823160e01b815233600482015281907f00000000000000000000000000000000000000000000000000000000000000006001600160a01b0316906370a082319060240160206040518083038186803b15801561105257600080fd5b505afa158015611066573d6000803e3d6000fd5b505050506040513d601f19601f8201168201806040525081019061108a91906122fc565b10156110ce5760405162461bcd60e51b8152602060048201526013602482015272496e73756666696369656e742066756e64732160681b604482015260640161097a565b6000811180156110ed5750336000908152600760205260409020548111155b6111555760405162461bcd60e51b815260206004820152603360248201527f43616e277420726570617920616d6f756e743a2030206f72206d6f7265207468604482015272616e20616d6f756e7420626f72726f7765642160681b606482015260840161097a565b3360009081526007602052604090205481141561118457336000908152600860205260409020805460ff191690555b33600090815260076020526040812080548392906111a3908490612251565b90915550506040516323b872dd60e01b8152336004820152306024820152604481018290527f00000000000000000000000000000000000000000000000000000000000000006001600160a01b0316906323b872dd90606401602060405180830381600087803b15801561121657600080fd5b505af115801561122a573d6000803e3d6000fd5b505050506040513d601f19601f8201168201806040525081019061124e9190612268565b61126a5760405162461bcd60e51b815260040161097a906122cf565b60405181815233907f5c16de4f8b59bd9caf0f49a545f25819a895ed223294290b408242e72a594231906020015b60405180910390a250565b60006112ae336109bf565b905060008111806112cd57503360009081526003602052604090205415155b6113105760405162461bcd60e51b81526020600482015260146024820152734e6f2c202420746f6b656e73206561726e65642160601b604482015260640161097a565b336000908152600360205260409020541561134757336000908152600360205260408120805491905561134381836122b7565b9150505b3360008181526004602081905260409182902042905590516340c10f1960e01b815290810191909152602481018290526001600160a01b037f000000000000000000000000000000000000000000000000000000000000000016906340c10f1990604401600060405180830381600087803b1580156113c557600080fd5b505af11580156113d9573d6000803e3d6000fd5b50506040518381523392507fa545e4dc4c88e365d074b08caa078e39f0e143263df2b53bbcc2fb472a31807e9150602001611298565b336000908152600660205260409020548111156114795760405162461bcd60e51b815260206004820152602260248201527f4e6f7420656e6f75676820636f6c6c61746572616c20746f2077697468647261604482015261772160f01b606482015260840161097a565b3360009081526008602052604090205460ff16156114ec5760405162461bcd60e51b815260206004820152602a60248201527f43616e277420776974686472617720636f6c6c61746572616c207768696c6520604482015269626f72726f77696e672160b01b606482015260840161097a565b336000908152600660205260408120805483929061150b908490612251565b9091555050604051600090339083908381818185875af1925050503d8060008114611552576040519150601f19603f3d011682016040523d82523d6000602084013e611557565b606091505b50509050806115785760405162461bcd60e51b815260040161097a906122cf565b60405182815233907fa8e76b822fc682be77f3b1c822ea81f6bda5aed92ba82e6873bfd889f328d1d2906020015b60405180910390a25050565b60006305f5e100600a546115c6919061222f565b905090565b6001600160a01b0381166000908152600760205260408120546115f09060649061222f565b6115fb90600a612210565b6001600160a01b0383166000908152600760205260409020546109b991906122b7565b611626611e7b565b6116306000611ed5565b565b60006109b982610a32565b60009182526001602090815260408084206001600160a01b0393909316845291905290205460ff1690565b6001600160a01b0381166000908152600460205260408120546109b99042612251565b600081116116d35760405162461bcd60e51b815260206004820152601560248201527443616e2774206c656e6420616d6f756e743a20302160581b604482015260640161097a565b6040516370a0823160e01b815233600482015281907f00000000000000000000000000000000000000000000000000000000000000006001600160a01b0316906370a082319060240160206040518083038186803b15801561173457600080fd5b505afa158015611748573d6000803e3d6000fd5b505050506040513d601f19601f8201168201806040525081019061176c91906122fc565b10156117b25760405162461bcd60e51b8152602060048201526015602482015274496e73756666696369656e742062616c616e63652160581b604482015260640161097a565b3360009081526005602052604090205460ff16156118005760006117d5336109bf565b336000908152600360205260408120805492935083929091906117f99084906122b7565b9091555050505b336000908152600260205260408120805483929061181f9084906122b7565b9091555050336000818152600460208181526040808420429055600590915291829020805460ff1916600117905590516323b872dd60e01b815290810191909152306024820152604481018290527f00000000000000000000000000000000000000000000000000000000000000006001600160a01b0316906323b872dd90606401602060405180830381600087803b1580156118bb57600080fd5b505af11580156118cf573d6000803e3d6000fd5b505050506040513d601f19601f820116820180604052508101906118f39190612268565b61190f5760405162461bcd60e51b815260040161097a9061228a565b60405181815233907f41b123d2493c7b2067b8b7f49cf71532523d83ead11494d793531ece1fd4d04690602001611298565b61194c60003361163d565b6119685760405162461bcd60e51b815260040161097a906121cb565b61198060008051602061243183398151915282610cdf565b50565b600061198e826109bf565b6001600160a01b0383166000908152600360205260409020546109b991906122b7565b336000908152600660205260409020546119ce906103e89061222f565b6119d9906003612210565b33600090815260066020526040812080549091906119f8908490612251565b909155505033600090815260066020526040902054611a525760405162461bcd60e51b81526020600482015260166024820152754e6f2045544820636f6c6c61746572616c697a65642160501b604482015260640161097a565b80611a5c33610a32565b1015611ab65760405162461bcd60e51b815260206004820152602360248201527f426f72726f7720616d6f756e74206578636565647320626f72726f77206c696d60448201526269742160e81b606482015260840161097a565b336000908152600860209081526040808320805460ff19166001179055600790915281208054839290611aea9084906122b7565b9091555060009050611afe6103e88361222f565b611b09906003612210565b611b139083612251565b60405163a9059cbb60e01b8152336004820152602481018290529091507f00000000000000000000000000000000000000000000000000000000000000006001600160a01b03169063a9059cbb90604401602060405180830381600087803b158015611b7e57600080fd5b505af1158015611b92573d6000803e3d6000fd5b505050506040513d601f19601f82011682018060405250810190611bb69190612268565b611bd25760405162461bcd60e51b815260040161097a9061228a565b60405182815233907fcbc04eca7e9da35cb1393a6135a199ca52e450d5e9251cbd99f7847d33a36750906020016115a6565b60008281526001602081905260409091200154611c2081611d9f565b610d058383611e14565b611c3560003361163d565b611c515760405162461bcd60e51b815260040161097a906121cb565b61198060008051602061243183398151915282611c04565b60006109b9826115cb565b60003411611cce5760405162461bcd60e51b815260206004820152602160248201527f43616e277420636f6c6c617465726c697a652045544820616d6f756e743a20306044820152602160f81b606482015260840161097a565b3360009081526006602052604081208054349290611ced9084906122b7565b909155505060405134815233907f94c9d5464fed48366596c718219e5fbd3c0c61c1a21391bf239075e9de5a727a9060200160405180910390a2565b611d31611e7b565b6001600160a01b038116611d965760405162461bcd60e51b815260206004820152602660248201527f4f776e61626c653a206e6577206f776e657220697320746865207a65726f206160448201526564647265737360d01b606482015260840161097a565b61198081611ed5565b6119808133611f25565b611db3828261163d565b610f8e5760008281526001602081815260408084206001600160a01b0386168086529252808420805460ff19169093179092559051339285917f2f8788117e7eff1d82e926ec794901d17c78024a50270940304540a733656f0d9190a45050565b611e1e828261163d565b15610f8e5760008281526001602090815260408083206001600160a01b0385168085529252808320805460ff1916905551339285917ff6391f5c32d9c69d2a47ea670b442974b53935d1edc7fd64eb21e047a839171b9190a45050565b6000546001600160a01b031633146116305760405162461bcd60e51b815260206004820181905260248201527f4f776e61626c653a2063616c6c6572206973206e6f7420746865206f776e6572604482015260640161097a565b600080546001600160a01b038381166001600160a01b0319831681178455604051919092169283917f8be0079c531659141344cd1fd0a4f28419497f9722a3daafe3b4186f6b6457e09190a35050565b611f2f828261163d565b610f8e57611f47816001600160a01b03166014611f89565b611f52836020611f89565b604051602001611f63929190612345565b60408051601f198184030181529082905262461bcd60e51b825261097a916004016123ba565b60606000611f98836002612210565b611fa39060026122b7565b67ffffffffffffffff811115611fbb57611fbb6123ed565b6040519080825280601f01601f191660200182016040528015611fe5576020820181803683370190505b509050600360fc1b8160008151811061200057612000612403565b60200101906001600160f81b031916908160001a905350600f60fb1b8160018151811061202f5761202f612403565b60200101906001600160f81b031916908160001a9053506000612053846002612210565b61205e9060016122b7565b90505b60018111156120d6576f181899199a1a9b1b9c1cb0b131b232b360811b85600f166010811061209257612092612403565b1a60f81b8282815181106120a8576120a8612403565b60200101906001600160f81b031916908160001a90535060049490941c936120cf81612419565b9050612061565b508315610a925760405162461bcd60e51b815260206004820181905260248201527f537472696e67733a20686578206c656e67746820696e73756666696369656e74604482015260640161097a565b60006020828403121561213757600080fd5b5035919050565b60006020828403121561215057600080fd5b81356001600160e01b031981168114610a9257600080fd5b80356001600160a01b038116811461217f57600080fd5b919050565b60006020828403121561219657600080fd5b610a9282612168565b600080604083850312156121b257600080fd5b823591506121c260208401612168565b90509250929050565b60208082526015908201527421b0b63632b91034b9903737ba10309039ba30b33360591b604082015260600190565b634e487b7160e01b600052601160045260246000fd5b600081600019048311821515161561222a5761222a6121fa565b500290565b60008261224c57634e487b7160e01b600052601260045260246000fd5b500490565b600082821015612263576122636121fa565b500390565b60006020828403121561227a57600080fd5b81518015158114610a9257600080fd5b6020808252601390820152725472616e73616374696f6e206661696c65642160681b604082015260600190565b600082198211156122ca576122ca6121fa565b500190565b6020808252601390820152725472616e73616374696f6e204661696c65642160681b604082015260600190565b60006020828403121561230e57600080fd5b5051919050565b60005b83811015612330578181015183820152602001612318565b8381111561233f576000848401525b50505050565b7f416363657373436f6e74726f6c3a206163636f756e742000000000000000000081526000835161237d816017850160208801612315565b7001034b99036b4b9b9b4b733903937b6329607d1b60179184019182015283516123ae816028840160208801612315565b01602801949350505050565b60208152600082518060208401526123d9816040850160208701612315565b601f01601f19169190910160400192915050565b634e487b7160e01b600052604160045260246000fd5b634e487b7160e01b600052603260045260246000fd5b600081612428576124286121fa565b50600019019056fe5620a1113a72b02a617976b3f6b15600dd7a8b3a916a9ca01e23119d989a0543a264697066735822122080e72d3c1804f91ab952301905b7d74829d561c7291d778a9bc65bc2f7ab111764736f6c63430008090033",
  "devdoc": {
    "author": "John Nguyen (jooohn.eth)",
    "kind": "dev",
    "methods": {
      "borrow(uint256)": {
        "details": "deducting 0.3% from msg.sender's ETH collateral as protocol's fees",
        "params": {
          "_amount": "amount of base asset to borrow"
        }
      },
      "calculateBorrowLimit(address)": {
        "returns": {
          "limit": "current borrow limit for user"
        }
      },
      "calculateYieldTime(address)": {
        "params": {
          "_lender": "address of lender"
        },
        "returns": {
          "lendingTime": "amount of time staked by lender"
        }
      },
      "calculateYieldTotal(address)": {
        "details": "rate = timeStaked / amount of time needed to earn 100% of $FUSN tokens. 31536000 = number of seconds in a year.",
        "params": {
          "_lender": "address of lender"
        },
        "returns": {
          "yield": "amount of $FUSN tokens earned by lender"
        }
      },
      "constructor": {
        "params": {
          "_JdaiAddress": "address of $FUSN token",
          "_baseAssetAddress": "address of base asset token"
        }
      },
      "getEthPrice()": {
        "returns": {
          "_ethPrice": "price of ETH in USD"
        }
      },
      "getRoleAdmin(bytes32)": {
        "details": "Returns the admin role that controls `role`. See {grantRole} and {revokeRole}. To change a role's admin, use {_setRoleAdmin}."
      },
      "grantRole(bytes32,address)": {
        "details": "Grants `role` to `account`. If `account` had not been already granted `role`, emits a {RoleGranted} event. Requirements: - the caller must have ``role``'s admin role. May emit a {RoleGranted} event."
      },
      "hasRole(bytes32,address)": {
        "details": "Returns `true` if `account` has been granted `role`."
      },
      "lend(uint256)": {
        "params": {
          "_amount": "amount of tokens to lend"
        }
      },
      "liquidate(address)": {
        "details": "passedLiquidation modifier checks if the borrow position has passed liquidation pointliquidationReward 1.25% of borrower's ETH collateral",
        "params": {
          "_borrower": "address of borrower"
        }
      },
      "owner()": {
        "details": "Returns the address of the current owner."
      },
      "renounceOwnership()": {
        "details": "Leaves the contract without owner. It will not be possible to call `onlyOwner` functions anymore. Can only be called by the current owner. NOTE: Renouncing ownership will leave the contract without an owner, thereby removing any functionality that is only available to the owner."
      },
      "renounceRole(bytes32,address)": {
        "details": "Revokes `role` from the calling account. Roles are often managed via {grantRole} and {revokeRole}: this function's purpose is to provide a mechanism for accounts to lose their privileges if they are compromised (such as when a trusted device is misplaced). If the calling account had been revoked `role`, emits a {RoleRevoked} event. Requirements: - the caller must be `account`. May emit a {RoleRevoked} event."
      },
      "repay(uint256)": {
        "params": {
          "_amount": "amount of base asset to repay"
        }
      },
      "revokeRole(bytes32,address)": {
        "details": "Revokes `role` from `account`. If `account` had been granted `role`, emits a {RoleRevoked} event. Requirements: - the caller must have ``role``'s admin role. May emit a {RoleRevoked} event."
      },
      "supportsInterface(bytes4)": {
        "details": "See {IERC165-supportsInterface}."
      },
      "transferOwnership(address)": {
        "details": "Transfers ownership of the contract to a new account (`newOwner`). Can only be called by the current owner."
      },
      "withdrawCollateral(uint256)": {
        "params": {
          "_amount": "amount of ETH the user wants to withdraw"
        }
      },
      "withdrawLend(uint256)": {
        "params": {
          "_amount": "amount of tokens to withdraw"
        }
      }
    },
    "version": 1
  },
  "userdoc": {
    "events": {
      "Lend(address,uint256)": {
        "notice": "events emitted after each action."
      }
    },
    "kind": "user",
    "methods": {
      "baseAsset()": {
        "notice": "declaring token variables."
      },
      "borrow(uint256)": {
        "notice": "borrows base asset"
      },
      "calculateBorrowLimit(address)": {
        "notice": "calculates the borrow limit depending on the price of ETH and borrow limit rate."
      },
      "calculateYieldTime(address)": {
        "notice": "calculates amount of time the lender has been lending since the last update."
      },
      "calculateYieldTotal(address)": {
        "notice": "calculates amount of $FUSN tokens the lender has earned since the last update."
      },
      "claimYield()": {
        "notice": "claims all yield earned by lender."
      },
      "collateralBalance(address)": {
        "notice": "mappings needed to keep track of collateral and borrowing"
      },
      "collateralize()": {
        "notice": "collateralizes user's ETH and sets borrow limit"
      },
      "constructor": {
        "notice": "initiating tokens"
      },
      "getBorrowBalance(address)": {
        "notice": "returns amount of base asset borrowed"
      },
      "getBorrowLimit(address)": {
        "notice": "returns amount of base asset available to borrow"
      },
      "getBorrowingStatus(address)": {
        "notice": "returns borrowing status of borrower"
      },
      "getCollateralBalance(address)": {
        "notice": "returns amount of collateralized asset"
      },
      "getEarnedJdaiTokens(address)": {
        "notice": "retuns amount of $FUSN tokens earned"
      },
      "getEthPrice()": {
        "notice": "Function to get latest price of ETH in USD"
      },
      "getLendingBalance(address)": {
        "notice": "returns amount of base asset lent"
      },
      "getLendingStatus(address)": {
        "notice": "returns lending status of lender"
      },
      "getLiquidationPoint(address)": {
        "notice": "returns liquidation point"
      },
      "lend(uint256)": {
        "notice": "lends base asset."
      },
      "lendingBalance(address)": {
        "notice": "mappings needed to keep track of lending"
      },
      "liquidate(address)": {
        "notice": "liquidates a borrow position"
      },
      "repay(uint256)": {
        "notice": "repays base asset debt"
      },
      "withdrawCollateral(uint256)": {
        "notice": "withdraw user's collateral ETH and recalculates the borrow limit"
      },
      "withdrawLend(uint256)": {
        "notice": "withdraw base asset."
      }
    },
    "notice": "Main Jdai Finance contract responsible for lending, collateralizing and borrowing",
    "version": 1
  },
  "storageLayout": {
    "storage": [
      {
        "astId": 446,
        "contract": "contracts/JdaiCore.sol:JdaiCore",
        "label": "_owner",
        "offset": 0,
        "slot": "0",
        "type": "t_address"
      },
      {
        "astId": 70,
        "contract": "contracts/JdaiCore.sol:JdaiCore",
        "label": "_roles",
        "offset": 0,
        "slot": "1",
        "type": "t_mapping(t_bytes32,t_struct(RoleData)65_storage)"
      },
      {
        "astId": 1592,
        "contract": "contracts/JdaiCore.sol:JdaiCore",
        "label": "lendingBalance",
        "offset": 0,
        "slot": "2",
        "type": "t_mapping(t_address,t_uint256)"
      },
      {
        "astId": 1596,
        "contract": "contracts/JdaiCore.sol:JdaiCore",
        "label": "JdaiBalance",
        "offset": 0,
        "slot": "3",
        "type": "t_mapping(t_address,t_uint256)"
      },
      {
        "astId": 1600,
        "contract": "contracts/JdaiCore.sol:JdaiCore",
        "label": "startTime",
        "offset": 0,
        "slot": "4",
        "type": "t_mapping(t_address,t_uint256)"
      },
      {
        "astId": 1604,
        "contract": "contracts/JdaiCore.sol:JdaiCore",
        "label": "isLending",
        "offset": 0,
        "slot": "5",
        "type": "t_mapping(t_address,t_bool)"
      },
      {
        "astId": 1609,
        "contract": "contracts/JdaiCore.sol:JdaiCore",
        "label": "collateralBalance",
        "offset": 0,
        "slot": "6",
        "type": "t_mapping(t_address,t_uint256)"
      },
      {
        "astId": 1613,
        "contract": "contracts/JdaiCore.sol:JdaiCore",
        "label": "borrowBalance",
        "offset": 0,
        "slot": "7",
        "type": "t_mapping(t_address,t_uint256)"
      },
      {
        "astId": 1617,
        "contract": "contracts/JdaiCore.sol:JdaiCore",
        "label": "isBorrowing",
        "offset": 0,
        "slot": "8",
        "type": "t_mapping(t_address,t_bool)"
      },
      {
        "astId": 1621,
        "contract": "contracts/JdaiCore.sol:JdaiCore",
        "label": "priceFeed",
        "offset": 0,
        "slot": "9",
        "type": "t_contract(AggregatorV3Interface)45"
      },
      {
        "astId": 1638,
        "contract": "contracts/JdaiCore.sol:JdaiCore",
        "label": "ethPrice",
        "offset": 0,
        "slot": "10",
        "type": "t_uint256"
      }
    ],
    "types": {
      "t_address": {
        "encoding": "inplace",
        "label": "address",
        "numberOfBytes": "20"
      },
      "t_bool": {
        "encoding": "inplace",
        "label": "bool",
        "numberOfBytes": "1"
      },
      "t_bytes32": {
        "encoding": "inplace",
        "label": "bytes32",
        "numberOfBytes": "32"
      },
      "t_contract(AggregatorV3Interface)45": {
        "encoding": "inplace",
        "label": "contract AggregatorV3Interface",
        "numberOfBytes": "20"
      },
      "t_mapping(t_address,t_bool)": {
        "encoding": "mapping",
        "key": "t_address",
        "label": "mapping(address => bool)",
        "numberOfBytes": "32",
        "value": "t_bool"
      },
      "t_mapping(t_address,t_uint256)": {
        "encoding": "mapping",
        "key": "t_address",
        "label": "mapping(address => uint256)",
        "numberOfBytes": "32",
        "value": "t_uint256"
      },
      "t_mapping(t_bytes32,t_struct(RoleData)65_storage)": {
        "encoding": "mapping",
        "key": "t_bytes32",
        "label": "mapping(bytes32 => struct AccessControl.RoleData)",
        "numberOfBytes": "32",
        "value": "t_struct(RoleData)65_storage"
      },
      "t_struct(RoleData)65_storage": {
        "encoding": "inplace",
        "label": "struct AccessControl.RoleData",
        "members": [
          {
            "astId": 62,
            "contract": "contracts/JdaiCore.sol:JdaiCore",
            "label": "members",
            "offset": 0,
            "slot": "0",
            "type": "t_mapping(t_address,t_bool)"
          },
          {
            "astId": 64,
            "contract": "contracts/JdaiCore.sol:JdaiCore",
            "label": "adminRole",
            "offset": 0,
            "slot": "1",
            "type": "t_bytes32"
          }
        ],
        "numberOfBytes": "64"
      },
      "t_uint256": {
        "encoding": "inplace",
        "label": "uint256",
        "numberOfBytes": "32"
      }
    }
  }
}